:100000006F30B03B1300000013000000130000002D
:100010001300000013000000130000001300000094
:100020001300000013000000130000001300000084
:08003000130000007300100032
:100038000000000000000000CE370000EE3700008E
:1000480000000000003B000000000000000000006D
:10005800023B0000043B000000000000000000001C
:100068009E2F000000000000D002000000000000E9
:100078000A3B00000C3B00000E3B0000103B000058
:10008800123B0000143B000094330000BC33000016
:10009800E43300000C34000034340000203B00003E
:1000A800223B0000243B0000263B0000283B0000C8
:1000B8002A3B00002C3B00002E3B0000303B000098
:1000C800323B0000343B0000363B00005C3400004B
:1000D8003A3B00003C3B00003E3B0000403B000038
:1000E800423B0000443B0000463B0000483B000008
:1000F8004A3B00004C3B00004E3B0000503B0000D8
:10010800523B000084370000563B0000583B00007B
:10011800D43400005C3B00005E3B0000603B000004
:10012800623B0000643B0000663B0000683B000047
:100138006A3B00006C3B00006E3B0000703B000017
:10014800723B0000743B0000763B0000783B0000E7
:100158007A3B00007C3B00007E3B0000803B0000B7
:10016800823B0000843B0000863B0000883B000087
:100178008A3B00008C3B00008E3B0000903B000057
:10018800923B0000943B0000963B0000983B000027
:100198009A3B00009C3B00009E3B0000A03B0000F7
:1001A800A23B0000A43B0000A63B0000A83B0000C7
:1001B800AA3B0000AC3B0000AE3B0000B03B000097
:1001C800B23B0000B43B0000B63B0000B83B000067
:1001D8000000000000000000000000000000000017
:1001E8000000000000000000000000000000000007
:0801F8000000000000000000FF
:1002000097020120938202E0938202E0739002340D
:1002100003210500224573100530B1A81971232070
:10022000250006C006C216CAF322003093F28200EF
:10023000638402009302000816C412C81ACC1ECEB2
:1002400022D026D22AD42ED632D836DA3ADC3EDE76
:10025000C2C0C6C2CAC4CEC6D2C8D6CADACCDECEE6
:10026000E2D0E6D2EAD4EED6F2D8F6DAFADCFEDE56
:1002700003A1050009A0024573101534924037858B
:1002800000001305058073200530224573200530DA
:100290004242D2426243F243025492542255B25532
:1002A0004256D2566257F257064896482649B649F2
:1002B000464AD64A664BF64B065C965C265DB65DB2
:1002C000465ED65E665FF65F09617300203000000F
:1002D000197116CA9302000816C49302000273A093
:1002E000428006C212C81ACC1ECE22D026D22AD4F0
:1002F0002ED632D836DA3ADC3EDEC2C0C6C2CAC416
:10030000CEC6D2C8D6CADACCDECEE2D0E6D2EAD4A5
:10031000EED6F2D8F6DAFADCFEDE73110134FD23F4
:10032000EF107006EF00406173110134138481896E
:1003300003290400630409022320040073251034F8
:100340002AC013840189044023A024001384418916
:10035000044003A104000245731015349240B78293
:1003600000009382028073A00230A24273A0023088
:100370004242D2426243F243025492542255B25551
:100380004256D2566257F257064896482649B64911
:10039000464AD64A664BF64B065C965C265DB65DD1
:1003A000465ED65E665FF65F09617300203000002E
:1003B000397101436EC619A0397141536AC866CAC2
:1003C00062CC5ECE19A0397101535AD056D252D4A4
:1003D0004ED64AD826DA22DC06DE3301614082821C
:1003E00041114AC026C222C406C68282B24D4101D2
:1003F000024D924C224CB24B4101024B924A224A8E
:10040000B2494101024992442244B24041018280F2
:100410003D432A876373C3029377F700BDEFADE5D1
:10042000937606FF3D8ABA960CC34CC30CC74CC7E3
:100430004107E36BD7FE11E28280B306C3408A0610
:100440009702000096966780A6002307B700A306D0
:10045000B7002306B700A305B7002305B700A30420
:10046000B7002304B700A303B7002303B700A30218
:10047000B7002302B700A301B7002301B700A30010
:10048000B7002300B700828093F5F50F939685009F
:10049000D58D93960501D58D61B793962700970268
:1004A000000096968682E78086FA9680C1171D8F97
:1004B0003E96E374C3F8A5B703A581808280EFF26E
:1004C0003FF2938781809843050798C3EF10402F30
:1004D0003C45FD173CC589E77C413CC5EF10003326
:1004E000EF10C05D05B7014582800145828001455E
:1004F000828001458280EFF2BFEE19649964130493
:10050000C48A9384848B63639400EDBD1C40110402
:100510008297D5BFEFF2DFEC196499641304848BE2
:100520009384048C63639400F1BD1C401104829792
:10053000D5BFEFF2FFEAF93FEF30C036E1B5EFF299
:100540003FEAB705000037450000D1472947930629
:10055000002001469385255313054527EF10A0265B
:10056000EF10E03D45B5EFF2BFE7EF10A062EF20DE
:10057000B01BEF00B02BEF10E05BEF005078C137FD
:10058000EF10E05B012CEF00707A0145A5BDEFF2A2
:100590003FE5D13F0145BDB5EFF2FFE2AA89EF107B
:1005A000202219C1EF10800A2545EF00F060444178
:1005B0001304450063968400EF108020014911A8C0
:1005C000138944FF2146CE854A851D2D01E9EF1090
:1005D000201F19C1EF10E0084A8505B58440D9BF36
:1005E00009E57D5582807D5531BDEFF27FDF2A849C
:1005F0002E853289AE844D377DF522852686A54528
:10060000EF00305E0145231C2401230E0400231D4E
:100610000400D9BFEFF2DFDC1E2D41112A84C18B0B
:100620009DE71C558DC32EC68297AA84B24501CD85
:100630002A8637450000A2851305C527EF009018CC
:1006400026854101C1B31E2C93E707011EAC1E2C69
:10065000A18B89C73E2CE554A18BFDF35C5489CF57
:1006600022858297AA8405E13E2C93E787003EAC61
:100670005C2C85075CACE9B785679387F7F0FD8D47
:100680002EAC8144D5B7E957E31CF5FAF1BF5C2DD8
:1006900085CBEFF2FFD4FD1793F7F70F5CAD2A84FB
:1006A000014789EF1C5989E70147231D040039A040
:1006B00082972A8775D9E957E309F5FE3A8599B3F8
:1006C0007D573A858280EFF2BFD1582D09E77D55DD
:1006D0002129014521A05C5999C3829725B3695509
:1006E000C5BFEFF2FFCF582D09E77D55F52E014527
:1006F00021A01C5D99C3829731B36955C5BF0CD148
:1007000001458280EFF23FCC93894186854A83A7D9
:10071000418663863705EF10E04783A741862A8A22
:10072000638D370303A441865C4018401309C4FE5F
:100730005CC398C340C000C0EF0050717C5099C3A7
:100740004A8582974A85EF00105B631B55014A85F5
:10075000EF00104FEF00F0705285EF10604471B958
:10076000EF0030705285EF10A0434848EF00303A58
:100770004A85EF00305561BFEFF29FC613840193A5
:10078000130904011C4091C382971104E31C24FF48
:10079000953FEDB7EFF2DFC437060000B745000024
:1007A000930800027D489307002013870194814637
:1007B000130686779385452B1385018BEF00307DDB
:1007C0001385018BEF10A01735B9EFF27FC14111EE
:1007D0002A842E8532C62EC4EF1060083246A24508
:1007E00019C68547630DF6000145410121B95840FE
:1007F000938745011CC398CD5CC0C0C9F5B71C40A8
:100800006388870083C6550303C7170263FAE600AF
:10081000D4431387450198C294CDD8C3DCC9E9B746
:100820009C43F9BFEFF2DFBB4111B2842E868945AC
:100830002A8436C6EF00F03AB246930744011CCC36
:100840005CC846AC14B4014541016DBEEFF2BFB7C0
:1008500083A7018541112EC62A8491C38297EF1088
:1008600060335E2CAA8989CFFD175EACEF10403350
:1008700083A7C184014591CB22858297014531A090
:10088000B24791E7EF10C03179554101BDB6EF0095
:100890003073232805021034AA85AA841305440165
:1008A0002D37B247635CF0001389C40470008145A2
:1008B0004A85EF10201D4A85EF10C0114E85EF10BC
:1008C000202EEF007049885845D5C1B7EFF25FB1CF
:1008D00083A781842A8491C38297EF10A02BAA84D6
:1008E000484893074401630EF5003115EF1060008E
:1008F00005442685EF10C02A19C0EF00F0450145D8
:1009000011B65E2C85075EAC0144E5B7EFF25FAD32
:100910004111EF102028138741811C23850793F78D
:10092000F70F1CA383A7C18081C72AC682973245CF
:10093000EF1000274101F9B4EFF29FAA4111EF1027
:100940006025138741811C23FD1793F7F70F1CA324
:1009500083A7018181C72AC682973245EF104024C0
:1009600041014DB403C5418182809378080441114F
:10097000639E080091689388084693730801638B0F
:1009800003001378E8FF930E000219A8916893887A
:10099000C83BE5B713731800930E0003E30503FE8D
:1009A00013732800630E0306635806023306C04023
:1009B0009302D0020A8E814F294F6395E607337365
:1009C000D6023356D602469303430300850F050E25
:1009D000A30F6EFE7DF20DA0137348009302B002C8
:1009E0006317030093728800B3325000960279F2C5
:1009F000930600035480854FFE8663D3FF00BE86B6
:100A000013781801158F631308046385020063537C
:100A1000E0007D172A86B308E5001303000221A831
:100A20008142F1B71373F600118271BF6374B6008F
:100A30002300660005063388C840E34900FF3A8674
:100A40006353070001467D173295118F63880200BA
:100A50006374B500230055007D1705056387030205
:100A6000AA96130800031DA86374B6002300D601DC
:100A700005063388C840E34900FF3A866353070000
:100A800001467D173295118FE1BF2A86B308E50034
:100A9000CDB76374B5002300050105053386A64074
:100AA000E3C9CFFEFD56FD1F6383DF0099E7AA87E8
:100AB0003306E5001308000231A86376B50033065B
:100AC000F101102210A10505F9BF63F4B7002380DE
:100AD00007018507B306F640E349D0FE63530700DC
:100AE00001473A9541018280EFF29F8F2A849D3D14
:100AF00009C523AC81806FF0FF90EF00704C75D971
:100B000000D9D5BF0D47AA876376C7009377350014
:100B100091C7AA873E966397C706828093F7F50F21
:100B200013978700D98F139707015D8FB308C5000E
:100B3000AA87BD463388F84063EB06039357460007
:100B4000C156B386D7029207AA970D4836963383CB
:100B5000C700BE86B308D34063621803135726004C
:100B6000F156B306D7020A07BA97369665B798C307
:100B7000D8C398C7C10723AEE7FE6DBF910623AE69
:100B8000E6FEC9BF8507A38FB7FE71B763F2A50460
:100B9000B386C500637ED5029345F6FF8147FD17F6
:100BA0006393F50082803387F600030807003387DC
:100BB000C7002A9723000701DDB73387F5008306B6
:100BC00007003307F500850714A3E318F6FE8280BB
:100BD0008147E5BF0DC6AA8785050387F5FF850711
:100BE0009306F6FFA38FE7FE09EB3E968507639316
:100BF000C7008280A38F07FED5BF3686F1FE8280B4
:100C000001476314E600814739A8B307E5008386EE
:100C10000700B387E5009C23B387F640E207E1872E
:100C200099E30507F9FE3E858280AA8703870700BE
:100C300001E73385A74082808507CDBFEFF2CFF76C
:100C40002E89B30B250141112A8CB68563F5AB00C3
:100C50001349F5FFFD5BC169374A00006284930ABE
:100C6000B002130B0002FD19130A8A4531A81307BD
:100C700050026389E702637374011CA0130514001A
:100C8000B284138614002A8483070600EDF36306FA
:100C90000900637B742F2300040033058441410164
:100CA0006FF00FF501481307D002930630021305C9
:100CB000000331A0639E570113684800268683070E
:100CC000160093041600E397E7FE13680801FDB7CA
:100CD0006395670113688800D5B76395D7001368DB
:100CE0000802E9BF6395A70013681800C1BF138706
:100CF00007FDA54663E6E6040147A546294539A058
:100D00003307A70285043E97130707FD8387040076
:100D1000138607FDE3F6C6FE038604009306E00291
:100D2000FD57631FD604838714002546938614005D
:100D3000138507FD6365A60A8147254529433DA024
:100D40009306A0027D57E399D7FC984193042600AF
:100D50009105E35307FC3307E040136808016DBFBA
:100D6000B38767028506B297938707FD038606005F
:100D7000930806FDE37615FF63D307008147B68429
:100D80008386040013068006014593F8B6FF639539
:100D9000C80013F5F60F8504038604009306900639
:100DA0006303D60663C5C606930680056303D61C97
:100DB00063C3C604930750026307F61A6375740190
:100DC000930750021CA08387040013051400638658
:100DD000071A637375011CB0130524005DB5130673
:100DE000A0026397C7009C4193862400910569B7D0
:100DF000B684814771B7930630066302D60893061E
:100E00004006E31DD6FA13682800A94699A0930668
:100E100030076303D60C63C5C6029306F006630071
:100E2000D61693060007E31BD6F8FD566315D700C8
:100E3000136818002147938C4500C14690411DA8B6
:100E400093065007E303D6FC93088007C146E317D7
:100E500016F71306C006938C4500E301C5FE130682
:100E60008006E31DC5FC904193752800639B051027
:100E700033763601DE852285CD3CE68519B51378BB
:100E8000080163150802BA879306000229A063735C
:100E9000740114A00504FD17E34BF0FE9307F7FF60
:100EA0006343E00005473387E74005079387450024
:100EB00063747401944114A013051400229713065F
:100EC0000002B306A7406344D000BE855DBB6373D8
:100ED000750110A10505F5B783AC0500138D45001C
:100EE00063930C00D28C66853EC63AC442C2353B41
:100EF000B247AA86124822476355F00063D3A70081
:100F0000BE8613780801631E0800BA871306000224
:100F100031A06373740110A00504BA877D17E3CA7A
:100F2000F6FE814763C1D702B68763D306008147C7
:100F30003305F4002A9713060002B307A74063CFD6
:100F4000F600EA853DBB3306F40063777601B3858E
:100F5000FC00838505000CA28507E9B76373750162
:100F600010A10505D9BF6373740110A01305140007
:100F700009BB13680804C146E9BDFD1419B3A146B5
:100F8000C9BD42064186FDB5A38F0BFE39B303A54B
:100F9000C1818280EFF2CFC403A9C181EFF0CFDF1E
:100FA00011CD1384C181AA84084019C1EFF02FEE3E
:100FB000930530042685EFF0EFE504C04A856FF015
:100FC0006FC48280397126CA2ED232D436D62A8690
:100FD00054109305F007138501B43EDA36C606CEE9
:100FE00022CC3AD842DC46DE9139AA8603A5C181DB
:100FF00009E9138501B4F137F2406244D24421611A
:1010000082802686262D1384C18193E704043EAD99
:101010009307F00763F4D7009306F007138601B433
:101020008145EFF00FEC1C40A6AFF9B7EFF24FBBD4
:10103000374500001305053D71373745000013059E
:10104000C53D4937374700003745000013070740C3
:101050008D4605468D451305C540AD373745000023
:101060001305C54285376FF0EFB931C59166137727
:10107000F50F9386C62B09C7BA968822050582808C
:10108000C167938707F0E98F81CB21851377F50F2F
:101090003697082325058280B707FF00E98F81CBAB
:1010A00041859377F50FB697882345058280618146
:1010B000369508216505828003A741825C41BA9775
:1010C0006305F502B62395E283A60182638FF600DD
:1010D0009386818290426313F60088C2D44354C140
:1010E000DC43B306E540BA9794C71045B307C70081
:1010F000630FF500B62381EE938681828C42639361
:10110000A5009CC25441D4C35C413E9710C7828065
:10111000EFF20FAD83A50183374500001305454766
:10112000553583A5C1833745000013058548593DD2
:1011300083A5C182374500001305C54961356FF0AD
:101140006FACEFF2EFA913F7C5FFE1462E8663F10E
:10115000E60693073500F19B930687FE63EAF604E3
:101160001D8F130687FE23A8C18289665117138439
:101170004182938606EAD8C394C323A407001CC007
:10118000BA9723A0F182C966938606EAB7450000A4
:1011900094C3D8C398C781460546938545531385A4
:1011A00001BCEFF02FE8184023A4E1826FF08FA577
:1011B000AA85374500001305C5532935C5BFEFF291
:1011C0002FA239C503A70183130435007198138931
:1011D000018381446366870EB1476373F400314431
:1011E000FD55138501BCEFF06FE683A7818283A5CF
:1011F00041828328090026853386B740B38688401C
:10120000138881826368D600138501BCEFF00FEC70
:1012100081447DA0B384C500BA2003AE440061E7D9
:101220003307CE40930F47FF63EF8F0A138FC183BD
:10123000938EC1821303840183260F0083A30E00C3
:101240001389C1839382C18263EF6F061307C400C1
:101250003297896E3383E500938E0EEA2322C30111
:101260002324C3002320D3010546D8C0B2A00326FF
:101270004300B108630416012E9618C61387C600F2
:1012800022972320E90063F4E30023A0E20009672A
:10129000130707EA9AA0639A970083A60182014781
:1012A000B22305EE19C32320F800138501BCEFF02B
:1012B000EFE183A78183B10481C7A2852685829748
:1012C00026856FF02F9405463697B2A02320EF00B5
:1012D000E3FFE3FA23A0EE005DBFE385D7FCDC4328
:1012E0000547AE9775BF728631BFEFF26F8F330639
:1012F000B5024111328532C6D9352A8409C5324634
:101300008145EFF03F80228541016FF0AF8F45C5E9
:10131000EFF26F8B83A741832A8491C3829783A7BF
:101320004182138941826366F40883A70182637254
:10133000F408FD55138501BCEFF04FD1835764FFCE
:10134000930944FF81CB035744FF8967938707EADA
:101350006301F702374500001305854EA53183561A
:1013600044FF035664FF37450000CE851305455002
:1013700091398967938707EA231AF4FE938781825C
:101380009843231B04FE63F4E90023A0370113876D
:10139000C1831C43832684FF4E85958F83260900D5
:1013A000B386D940B6971CC3013B138501BCEFF04F
:1013B000EFD16FF08F848280B707002093860700FB
:1013C00001479387070021468C426396A5001315B9
:1013D00047003E9582800507C106E317C7FE014519
:1013E0008280EFE25FFE2A842E85AE89328AE93759
:1013F0002A89A92C83244900930749006390F404A7
:101400008D2493E909F8230434012146D2852285ED
:10141000EFF04FFC83A7018499C322858297EF00E8
:101420006077032749009307C4005CC358C4232294
:10143000F90004C8EF00C0766FE03FFC84407DBF38
:10144000EFE21FFA83A741842A8491C38297230481
:101450000400EF002074544418489307C400D8C215
:1014600014C31CC85CC4EF00A0736FE0BFF9EFE2C7
:101470009FF52E89AA898937AA84484589332A8409
:101480001DCDD0448145EFF0EFE721462304340120
:10149000A3040400CA852285EFF0CFF383A701845B
:1014A00099C322858297EF00E06ED8409307C4006D
:1014B00091045CC358C49CC004C8EF00606E2285D0
:1014C0006FE0BFF3EFE2DFF183A741842A8491C389
:1014D000829723040400EF00E06B544418489307FC
:1014E000C400D8C214C31CC85CC4EF00606B228562
:1014F000393D6FE03FF1030585007D8182802390B7
:101500000186938701BE13870710DCC39CC3A10724
:10151000E39DE7FE7D47238AE18423AC018423A673
:10152000018693874186DCC39CC38280EFE25FEB38
:1015300003A5C186EFF07FB37D15931735001385A2
:1015400001BE3E9508411307C5FE210523ACE18489
:10155000EFE01FCB6FE01FEBEFE29FE8EF0080634F
:10156000839701862A89B1E703A5C186EFF0FFAF13
:101570007D1513173500938701BEBA97844393876F
:10158000818580439385C4FE6305B4028CC383A721
:10159000C185238AA18499C32285829783C741810B
:1015A0001305C4019385840093F7F70F81EBEFE0F7
:1015B000FFC64A85EF00C05E6FE0DFE4EF00A05E8B
:1015C000CDBFEFE2FFE12A84EF00C05C8347440314
:1015D00093064401C19B93E71700230AF402834753
:1015E000540313973700938701BEBA97D84314C3A7
:1015F00018CCD4C35CC89387C1869443185C558FBC
:1016000098C3EF00E0596FE0FFDFEFE27FDD2A844F
:101610005123184C544893074401D8C214C35CC8E2
:101620001CCC8347540313973700938701BEBA97A6
:101630009843631AF7001387C1861C5C144393C751
:10164000F7FFF58F1CC3A92B6FE0DFDBEFE25FD95B
:101650009123938701869A2305079AA391236FE02C
:101660007FDAEFE2FFD73D23138701861E23FD17A4
:10167000C207C1871EA3634BF000231007000D2390
:1016800083A7818591C3C93D6FE0DFD7112BEDBFE3
:10169000EFE21FD503A48185F529AA842285B537F9
:1016A0009147230AF4021305C40431262285A1358B
:1016B0008547631BF5003C5C81EB22855133268511
:1016C000C521593D6FE01FD483A64186130744010D
:1016D00023A2E186D8C29387418654C81CCCC5B7E3
:1016E000EFE21FD02A845105411108CC48C80CD024
:1016F00050D014D43A8658D49305300236853EC66D
:1017000042C4EFF02FC0585410544C500850711779
:10171000B71600003A96938606691D21B247224803
:101720003716000048CC230BF402A30AF402232C42
:1017300004028147232204052324040523280402EC
:10174000230A0402232C0406232E04060147A28642
:101750001306E676A2851305C4040D2483A701872A
:1017600099C322858297014541016FE0BFC9EFE22D
:101770003FC75049144D795718D954C21307450132
:1017800090C218CD58C9353DC13B6FE0BFC7EFE2ED
:101790003FC54111B2842E8685452A84368946C0CC
:1017A0003AC63EC442C2EFF0DFC302489247224726
:1017B000B2464A86A6852285253741016FE09FC43F
:1017C00003A581858280EFE21FC041112E89AA8581
:1017D000054532C6B684BA893E8AEFF05FC92A84CD
:1017E00011C92685EFF0BF9D324609E92285EFF049
:1017F0007FCD0144228541016FE03FC0AA86528817
:10180000CE872687CA852285E13DEDB7EFE25FBD31
:10181000512683A781850546AA8603C747033D8BCA
:10182000631CC702D04B984F6308E60258C210C32E
:1018300003C65703938647010E06138701BE94CF54
:101840003297504314C290CF54C3D8CB912EEFF0AF
:10185000BFD001456FE01FBB36859926DDBF8347AA
:1018600045030547BD8B639FE702EFE27FB72A84FC
:10187000152683474403AA842285C19B93E727004A
:10188000230AF402EFF07FD81305C404E122268571
:10189000012E83A78187014581C722858297014553
:1018A0006FE05FB67D558280EFE29FB341112AC69B
:1018B000D52403A481852A89228555379304C4043D
:1018C0007000814526857D2A268529224A85C92CD6
:1018D000EFF09FC81858F9576314F7002328040243
:1018E000014541016FE01FB2EFE29FAF753F6FE02E
:1018F0007FB1834745030947BD8B6390E704EFE25F
:101900003FAE2A84412C5448184C93074401AA84C2
:10191000D8C214C31CCC5CC81305C404252A268570
:1019200041242285EFF0FFC983A74187014581C784
:101930002285829701456FE0FFAC7D558280EFE202
:101940003FAA8346650305473317D70018DD0947CB
:10195000A30AD502230AE502693F83A7818599C3BB
:10196000EFF09FBF01456FE0FFA95449184D930761
:101970004501D8C214C31CCD5CC98280EFE25FA6CA
:101980004111B2842E86A9452A8436C63AC43EC285
:10199000EFF03FA59247B2462247F99B1CB493074C
:1019A000440144CC14D02324040258D01CCC5CC87D
:1019B00041016FE03FA5EFE2BFA22A84E12AAA8499
:1019C000228565372685E92A2285EFF07FA7014524
:1019D0006FE05FA3EFE2DFA02A846D2AAA8422854C
:1019E00069371C342685F99B1CB45D2A83A7C18402
:1019F00099C322858297EFE03FAC5C503E9508D4B6
:101A0000512A13878188032847003706008093876F
:101A100081881346E6FF98436315F8029386C187D1
:101A20009042050690C29306440154C358C894C31B
:101A30001CCC1C3493E717001CB49D2201456FE0B9
:101A40007F9C544B0C546385B6008D8EE378D6FC96
:101A5000BA87D1B71C35858B85C7EFE27F9883A7FE
:101A600081842A8491C382973522AA842285F53DF8
:101A700026853D221C340145F99B1CB46FE09F98DC
:101A80007D55828085476381F50263C5B70085C1B6
:101A9000014582808947638FF5008D47E39AF5FE03
:101AA0001C3593E7270009A85C511CC2D5B71C421E
:101AB0005CD1F9BF1C35F59B1CB5D9BFEFE2DF8FB8
:101AC000EFE09F9F2A8CF920B70900802A8A93842F
:101AD000818893C9E9FF8D4B80406316940052853D
:101AE000C1206FE0FF9048481309C4FE3305AC40A5
:101AF000E3E7A9FE83A7018899C34A8582974A85AF
:101B0000EFF0BFE61C4448448297EFE0FF9A83A7BA
:101B100041882A8C99C34A858297834754FF13F7DB
:101B2000E70FA30AE4FE8D8BE39877FB4A85EFF07D
:101B30007FEA5DB793878188DCC39CC38280828003
:101B40001106719A2A8837C7ADDE130506F8AA87F1
:101B50001307F7EE631EF600A16793870788232219
:101B6000D6F82324B6FA232006F92324F6F8828037
:101B700098C39107C5B737F700E01C43B70600804C
:101B8000D58F1CC3828037F700E01C43860785830E
:101B90001CC3828021651305058073150530828082
:101BA000731005308280EFE2BF8313878189184369
:101BB0009387818919E323A8A18823AAB1880547BF
:101BC00098C3553F6FE01F842A87814718436314E9
:101BD000A7003E8582808507D5BFB707EFBE37E7F0
:101BE00000E0938707083CC701458280EFE24FFF82
:101BF0003745000013058557EFF0CFBC01456FE076
:101C00007F80EFE2EFFD2A84FD54375900007D14F8
:101C1000631494006FE00FFF130509CEEFF08FBA45
:101C2000FDB7EFE24FFA0041AA8437590000B759D7
:101C30000000631494006FE04FFC9305C4FE13058D
:101C400049CEEFF02FB81C4063869700138589CEEC
:101C5000EFF04FB70040F1BFEFE28FF82E89EFE0D1
:101C6000DFFC2A84EFF09F9E83240900639C2401FB
:101C7000EFF03F9FA14763C3870011E02144228515
:101C80006FE04FF8138544FFEFE03FFA6353A40081
:101C90002A848440E1BFEFE22FF20545EFF0CFF157
:101CA000B7590000130945002A84CA851385C982E3
:101CB0006537AA85AA84375500001386C9821305A3
:101CC0004583EFF02FB02685EFF0BFF337550000C6
:101CD00013058587EFF00FAF4040B7590000054A64
:101CE000894A375B0000B75B0000375C0000B75CD7
:101CF0000000375D00006315890001456FE04FEF7C
:101D0000034794021385898B930644FF2146A685D9
:101D1000EFF04FAB8347840213854C8CBD8B638EF1
:101D2000470113050C8D638A57011385CB8D91C72D
:101D300011476396E70013058B8EEFF0AFA84C4C6C
:101D400093073002AE8698226306F702105093077D
:101D500040060848B295B386D540B386F602585C73
:101D60005C50898D13054D8FB3D6C602EFF08FA559
:101D7000004051B78506C1BFEFE2EFE441110945CC
:101D8000EFF08FE393094500374900002A84CE85A0
:101D90001305C97CEFF05FECAA85AA8437450000E3
:101DA0001306C97C1305857DEFF0CFA12685EFF0E2
:101DB0005FE5374500001305457FEFF0AFA04040D9
:101DC000375A0000B75A0000375B0000639689005D
:101DD000014541016FE06FE21A281C44930644FF5D
:101DE0001309840036C63AC44A856306F902EFF047
:101DF000BFDD2247B246AA872146A6851385CA8041
:101E0000EFF04F9C4A85EFF0DFE113054B74EFF0E4
:101E10006F9B004065BFEFF03FDB2247B246AA87C9
:101E20002146A6851305CA81EFF0CF99DDB7EFE211
:101E30008FD941111145EFF02FD89309450037494B
:101E400000002A84CE8513050961EFF0FFE0AA8522
:101E5000AA84374500001306096113058561EFF078
:101E60006F962685EFF0FFD9374500001305C5634F
:101E7000EFF04F954040374A0000B74A0000375B0B
:101E8000000063968900014541016FE00FD71C44B3
:101E900013098400930644FF18486309F9024A8530
:101EA00036C63AC4EFF05FD22247B246AA8721462F
:101EB000A6851385CA65EFF0EF904A85EFF07FD6CF
:101EC00013054B74EFF00F90004065BF2146A685C7
:101ED00013054A67EFF00F8FC5BFEFE2CFCE411178
:101EE0000D45EFF06FCDB7490000130945002A8476
:101EF000CA8513858976EFF03FD6AA85AA8437452F
:101F000000001386897613050577EFF0AF8B2685E1
:101F1000EFF03FCF3745000013054579EFF08F8A8A
:101F20004040B749000063168900014541016FE058
:101F3000CFCC930644FF1305840036C6EFF0DFC80C
:101F4000034834015C48B246AA8821472146A68549
:101F50001385497BEFF00F870040F1B7EFE2AFC682
:101F600041111545EFF04FC5930945003749000071
:101F70002A84CE8513058968EFF01FCEAA85AA842E
:101F8000374500001306896813050569EFF08F8354
:101F90002685EFF01FC7374500001305456BEFF0AE
:101FA0006F824040374A0000B74A0000375B0000AC
:101FB00063968900014541016FE02FC47A285E28AD
:101FC0001044930644FF1309840036C63AC43EC247
:101FD0004A856307C902EFF03FBF92472247B246E6
:101FE0002A882146A68513850A6DEFE0BFFD4A8544
:101FF000EFF03FC313054B74EFE0DFFC00404DBF33
:10200000EFF09FBC92472247B2462A882146A68518
:1020100013058A6EEFE01FFBD5B7EFE2CFBA41118F
:102020001945EFF06FB993094500374900002A843C
:10203000CE8513050970EFF03FC2AA85AA84374503
:102040000000130609701305C570EFE0BFF7268581
:10205000EFF03FBB3745000013058572EFE09FF6B8
:102060004040374A0000B74A0000375B00006396E3
:102070008900014541016FE04FB81A2C1C449306BA
:1020800044FF1309840036C63AC44A856306F90240
:10209000EFF09FB32247B246AA872146A685138553
:1020A0000A74EFE03FF24A85EFF0BFB713054B74B7
:1020B000EFE05FF1004065BFEFF01FB12247B2468D
:1020C000AA872146A68513054A75EFE0BFEFDDB765
:1020D000EFE26FAF5D712545EFF00FAE916513062E
:1020E00000052A8413094500938545220A85EF20BF
:1020F000C001B7490000CA851385895AEFF0DFB5E2
:10210000AA85AA84374500001386895A1305055B02
:10211000EFE05FEB2685EFF0DFAE374500001305FB
:10212000855DEFE03FEA4040D149374A0000631641
:102130008900014561616FE04FAC1C44930644FF88
:1021400063E0F90298088A07BA9703A707FB1C28DF
:102150002146A6851305CA5FEFE0DFE60040C1BF58
:102160004647F5B7EFE22FA62945EFF0EFA4B759A0
:102170000000130945002A84CA851385C991EFF030
:10218000BFADAA85AA84375500001386C9911305EF
:102190004592EFE03FE32685EFF0BFA637550000FC
:1021A0001305C594EFE01FE24040B7590000375ACD
:1021B0000000B75A0000631E8900EFE0EFAFAA8568
:1021C000375500001305459AEFE0DFDF01456FE06A
:1021D000CFA25C4C184C13850997930644FF214607
:1021E000A685EFE03FDE8347D4FF13858A98858B71
:1021F00099E313054A99EFE0FFDC00406DBFEFE281
:102200008F9C3745000013050558EFE0BFDB03A4A2
:10221000018AB7490000374A000083A7418A6365F5
:10222000F40001456FE06F9D0440094693854959CC
:102230002685EF10B07C19C55040A68513058A5934
:10224000EFE05FD83104D1BFEFE2EF9737550000E0
:10225000130545E4EFE01FD703A4018AB759000036
:10226000375A000083A7418A636BF400375500009A
:1022700013054574EFE01FD501456FE00F9804404A
:102280001946938509E62685EF10507701E95040FD
:102290009385640013058AE6EFE0DFD23104D9B7F5
:1022A00005458280EFE22F9279712A84AA959306E0
:1022B0000002254783070400B38485406385D70A5D
:1022C0006383E70A0145638B041001491307000289
:1022D000A546B307240183870700638AE70863885C
:1022E000D7086314990883A9018A83AA418A375BB6
:1022F000000063F0590903AA0900194693050BE68B
:102300005285EF10B06F59E54A86A28513056A0021
:10231000EF10D06E41E14A9A83076A00A5EF83A9C6
:102320008900638809041306800281452800EFE0D4
:102330002F8E13098100CA86A28701450147130821
:102340000002A548294313062002130EC005838509
:1023500007006384050163961505631F9702A9476B
:102360006303F50469A80504B1B705099DB7E31C2B
:1023700009F6A287038707001377F7FD79E737553A
:1023800000001305C5E223800700A285EFE09FC38C
:102390007D55A9A0B109B1BF2380070005078507B6
:1023A0007DB76310650437550000130585E0EFE045
:1023B0007FC10018B754000083250900138584E20B
:1023C0001109EFE03FC0E31989FE375500001305FE
:1023D0004574EFE03FBF29452C00829945616FE0CD
:1023E000CF81637E970005056392C50485070507C5
:1023F0009CC2838507006381C5026364970069FD01
:102400008DBF838E17006396C5016394CE00850748
:10241000050785070507F1BFE37397FE23800700D3
:10242000050785079106E36497F2D1BF9CC28385B7
:1024300007006389050163871501E30297FC85079F
:102440000507F5B7E36097FE5DBF850725B7EFD2B7
:10245000BFF68307050099E781450145EFF0DFDE10
:102460006FD01FF903AA018AAA8981440149375B09
:102470000000B75B000083A7418A6369FA00EDD0D2
:102480004A86A6854E85EFE0EFF4D9BF03240A0003
:10249000194693050BE62285EF10505621E14E8533
:1024A000EF10B05419042A86A2854E85EF101055FE
:1024B00015E5631709002285EF1030532A89A2849D
:1024C000A68722870386070001EE858F63D3270145
:1024D0003E89A28513850BE7EFE0DFAE310A61BFCD
:1024E00083060700FDD2E312D6FE85070507D9BF94
:1024F000EFD21FEFEFF02FFA01456FD0BFF0EFD210
:102500003FEEEFE0FFC001456FD0DFEFEFD25FEDB0
:1025100003A5C189EFE08FBB01456FD0BFEEEFD2BD
:102520003FECB75700009387877523A0F18AB76700
:1025300000009387878A23A2F18AB76700009387F8
:10254000878A23A4F18AB76700009387878A930557
:102550000021054523A6F18A1384C189EFE0FFD845
:1025600008C019E937550000130545F2EFE09FA5B3
:102570007D5422856FD01FE9B72500003755000034
:10258000A94755479306004001469385E569130521
:10259000C5F3EFF04FA3AA840840B7550000814669
:1025A0000146938545F4EFE0EFA70144F9D0268575
:1025B000EFF0EFB87DBFEFD2BFE2EFF07FCE0DC5F9
:1025C000B7550000938505EF138501CEEF10F0405D
:1025D000B7550000938505F0138501CEEF10103E2E
:1025E000138501CE6FD01FE2B7550000938585EFAC
:1025F000E1BFEFD2FFDE2A8437550000130505F650
:10260000EFE05F9CEFF03FFBAA8537550000130613
:10261000A41B130585F6EFE0FF9A01456FD09FDEFE
:10262000EFD21FDC41112AC6EFD01FF7B24511E9E6
:1026300037550000130545F0EFE0DF9841016FD0FA
:102640007FDC83A7C189AA841384C18983A7C7209B
:10265000E386A7FE93053014EFD0DFFB65F11C4045
:1026600003A5C72009C9EFE08F821C40814503A55F
:10267000C720EFE0CF880040130600058145130511
:10268000A41BEFD0FFD8B725000023150420232674
:1026900094209385C5502685EFE06F8645B7EFD22D
:1026A0003FD183A7C18941119384C18903C74702E0
:1026B000136717002382E70283A7C72091E7EFE0A3
:1026C0001F8D19C1EFF0DFF5EFF0FFEEEFE09F8F08
:1026D000375B0000B75B0000B7590000375A0000B5
:1026E000B75A0000375C0000B75C00009C4085468C
:1026F0001306F10003A5C720FD55EFD0DFFC854789
:10270000631AF5000309F100ED4780406319F900F1
:1027100008D0E9BF8840FD55EFE04F93C1BF1C5082
:102720006392A7029307B0056315F90089471CD08F
:1027300075BF23200402E30B09FAA5476314F912BD
:102740000149D1A80947E398E7FE23200402930733
:1027500010046312F9046E30D1D9FD15C205C18190
:102760006EB09307A41B13070005B385E50213069B
:1027700000053E859385A502A295EF101019EF1074
:10278000D0261375F50F2305A420A305A4202285C8
:10279000EFF03FE6A1BF930720046311F90216345E
:1027A0007E301387F6FF63D8E70085077EB0930776
:1027B000A41B6E304DBF9DDA7AB0D5BF930740049D
:1027C0006310F9028347B42095D31385C9F4EFE071
:1027D0006FFF98408347B720FD17A305F72039B74F
:1027E00093073004E319F9F48347B4200347A42086
:1027F000E3FEE7EE3E948305A41B13850AF5EFE0A4
:102800006FFC98408347B7208507C1BF1385C9F483
:10281000EFE04FFB050980408347B420E348F9FE11
:1028200013054A74EFE00FFAEFF09FA785471304F2
:10283000A41B6315F5002285EFF07FC1EFF0BFD731
:102840002286AA8513858CF6EFE0CFF7804013052A
:10285000A41BEF1090191375F50F2305A420A305F1
:10286000A42069B59307F0076305F900A147631534
:10287000F9088347B420E38B07E60346A420FD173D
:1028800093F7F70F7D161376F60F2305C420A305E3
:10289000F42063F8C7049385B71B1385A71B1D8E0F
:1028A000A2952295EFE08FAE9C4013854BF503C7B0
:1028B000A7203E97230D071A83C5B7209385A51B34
:1028C000BE95EFE02FF09C4003C4B7209C4083C727
:1028D000A720E3CD87E01385C9F4EFE0AFEE050450
:1028E000F5B71305CBF5EFE0EFED9C4003C7A7204C
:1028F000BA97238D071ADDBB35478347A4206305AC
:10290000E9002947631EE90EB9CB035984029147B8
:10291000130DA41B63FB2709930DA41613060005D2
:10292000EA856E85EF10207C1DC91309A4024A8533
:102930001309090513060005CA85EF10007DE39809
:102940002DFF1306000581456E85EFD07FAC034651
:10295000A420EA856E85EF10407B95471EB41E3497
:102960007EB0EFF0FF9385476312F5029C4083C76A
:102970004702858B89C713054A74EFE0AFE48840AE
:102980008345A5201305A51BEFF0DF91EFF0BFC233
:10299000EFE04FE380401306000581451305A41BBB
:1029A000EFD01FA72315042091B36301090213057B
:1029B000F9FF930700053305F50213060005EA85C4
:1029C0001305A5022295EF10007251D9930D000551
:1029D0003305B9031306000581451305A5022295A9
:1029E000EFD01FA30A340346A420EA853305B503BC
:1029F0001305A5022295EF1040711E348507B9BF5B
:102A00001307F0046374F700230504200346B42081
:102A10008347A4206370F6089305A61B1305B61B15
:102A2000A2953386C7402295EFE04F968C4083C72E
:102A3000B5203387F500230D271B03C74502058BFF
:102A400001CB9387A71BBE9513054CCEEFE08FD724
:102A50009C4003C4B7209C4083C7A7206346F40270
:102A600098408347A7208346B7208507850693F7BC
:102A7000F70FA305D7202305F7209306F004E3F70B
:102A8000F6C6231507209DB11385C9F4EFE08FD357
:102A90000504D1B7A297238D271B83474402858B5A
:102AA000E1D3CA8513850AF5EFE0CFD155BF7C414C
:102AB00023280504232A05049C4381CBEFD25F928F
:102AC0009305850482976FD0FF9301458280EFD2F2
:102AD0009F8F36899DCAAA843284B309D600294AB9
:102AE0001C20639B4701BE2C93F7070491C7FC4051
:102AF000B54526859C478297FC40830504002685C2
:102B00009C4705048297E31D34FD4A856FD0FF8EF4
:102B1000EFD21F8D93F705102A8491C71A2D6155A6
:102B20001377071035CF13F7054011C71A2C6155DD
:102B30001377074035C713F705049304000401E732
:102B4000262C93F40404384893F5F50F2EAC39EB9A
:102B5000A1C768442981420541813105EFE02FE694
:102B600070442A8931052982420641828145232009
:102B7000A900EFD03FF9232209003E2C23240900AD
:102B80002328240593E707103EAC7C401306001071
:102B9000C145DC43228582973E2C0145DD8C26AC65
:102BA0006FD05F86F5DB93E505102EACF5B70948CD
:102BB000AA8763810503EFD2BF820D4863820503B4
:102BC00005476399E5041A2D1377F7FD1AAD014502
:102BD0006FD05F831A2D136707021AAD01458280FB
:102BE000328775D6504274454C2D2982A9824206FF
:102BF000C2064182C1826304D6001D45F1F9144327
:102C0000B4C75443F4C7E1D5F443BA853E85944232
:102C1000829675BF7C41DC4382975DBFEFD2AFFAED
:102C20003684B1CA3E2DAA89328993F70710B6843B
:102C30009DE37D5AA94A83A749044E85DC478297C4
:102C4000630945012300A900FD140509630355012B
:102C5000FDF0058C0DA02449368A854AEFE09FF3EC
:102C6000FE20DA202A869444631AF70081EAEFE016
:102C70003FF33304444122856FD02FF898403E97AC
:102C8000034B070003A7C9048507C2072983C18333
:102C90004207FEA0418363E4E700239304006394AA
:102CA000560123A404003285EFE09FEF7D1A230034
:102CB00069010509E3140AFA6DBF582D854763ECD5
:102CC000E7023E2D93F707109DC7EFD26FF12A84DC
:102CD0002849EFE0CFE33E2C23280404130600101C
:102CE00093F7F7EF3EAC7C40C5452285DC438297E5
:102CF00001456FD02FF101458280EFD26FEE37375B
:102D000000001307E7AA18D537370000130707B1EB
:102D100058D5373700001307A7CB18D9373700002D
:102D20001307C7C158D9373700001307E7AC18DDC0
:102D3000373700001307E7BA420658DD34C1418235
:102D4000232A05002320050223220502EFD05F89F4
:102D50006FD04FEB93F5F50F85476391F50AEFD2EE
:102D60008FE620494111AA847D598549FC4026857A
:102D7000DC4782972A8A63072505EFE0BFE15A20E6
:102D80001C40BA97238047015E20F8448507C2079C
:102D90002983C18342075EA0418363E4E7002312D5
:102DA000040076205E20639CD7008507C207C1839C
:102DB0007EA02324340163E4E70023130400EFE042
:102DC0003FDE6DB79C5085C3EFE0DFDC5A206E20FC
:102DD000636EB700B305B7402EC6EFE07FDC9C50B2
:102DE000B2452685829741016FD02FE1FC44998D31
:102DF000A983C207C183B385B740F9BF828001CEE2
:102E0000EFD20FDE7841B2878E2318433222029729
:102E100001456FD02FDF7D558280EFD26FDC1387A5
:102E200041D678432E86AA851843138541D602974A
:102E30006FD04FDDEFD2CFDA138741D678432E869D
:102E4000AA855843138541D602976FD0AFDBEFD2E6
:102E50002FD9138741D67843AA85138541D61847C1
:102E600002976FD02FDA05C611476392E602EFD2C0
:102E70002FD77C410E2241119C4736C632C482971F
:102E80002246B2462AA2368541016FD0AFD781468D
:102E9000368582801DC2B28711466390C602EFD28A
:102EA0002FD47841B2238E235843411136C602975E
:102EB000B246410136856FD0EFD481463685828097
:102EC000EFD20FD2938741D64947D8CB373700008E
:102ED000130767E6D8DB37370000130747E998DFA9
:102EE000373700001307E7DFECC3B0C3AA850D46F0
:102EF000138541D623A0070223A2070223A40702B9
:102F000023A6070223A80702D8DFEFD06FED014503
:102F10006FD04FCF370500201305C570828037155D
:102F200000201305C5708280EFD28FCBB707002039
:102F300003A707169307803EC1563357F702B7E73A
:102F400000E02386D7402387D740856623A0D7108B
:102F5000916623A0D710B7F700E023A0070023A2B3
:102F60000700014690C78146D4C781461306F7FF84
:102F700090CBD4CB3D4798C3EFD0EFD7EFF09FF97C
:102F80002A84EFF0DFF9AA852285EFE08F9B375581
:102F90000000130505FEEFD0FFFF6FD0AFC6731121
:102FA0000134EFD0BF96B7F700E023A20700EFD0BF
:102FB0000FD1EFD07F987311013473002030814717
:102FC0008546130700023396F6006306A6008507C0
:102FD000E39BE7FEFD573E858280EFD26FC08545BB
:102FE00013050002EF0030786FD0CFC1EFD24FBF92
:102FF00085452145EF0030776FD0CFC0EFD24FBE6F
:1030000085451145EF0030766FD0CFBFEFD24FBD71
:1030100085454145EF0030756FD0CFBEEFD24FBC34
:10302000854513050004EF0010746FD0AFBDEFD2DB
:103030002FBB9565375500000146938585FE130526
:10304000056DEFF0FFE76FD0EFBB9307400663EC31
:10305000A700931745001565130505083E9518410F
:10306000FD576313F70001458280EFD26FB741111E
:1030700013F5F50F32C6EFF05FFD11C54E25324650
:103080000845EF00905341016FD0CFB7EFD24FB555
:1030900013F5F50FEFF07FFBAA87014589C7CE270F
:1030A0008847EF0070506FD0EFB5EFD26FB30111CA
:1030B00013F5F50F3284EFF05FF905C55C412AC6C0
:1030C000829732455C45FC82C1473ECE8D473ECC5F
:1030D00009C41547631AE40002CE08454C08EF0006
:1030E000B04005616FD00FB205476315E40091470A
:1030F0003ECEE5B76315F40093078002D5BF89473C
:103100006315F40093078004E5B791476314F40056
:10311000D147F9BF99476314F400F147D1BF9D47E8
:10312000E31DF4FAE147E9B7EFD2EFA913F5F50F84
:10313000AE84B289368A3A89EFF03FF1994731CDB2
:103140004845EFF0DFE73D472A8499476367A704C6
:10315000EFE05FA4B146B306D402B707002013879F
:1031600007082A8693870708369783160700639F08
:1031700096004C43639C45012E2363993501184703
:1031800063162701EFE0DFA1814701A87D5763891E
:10319000E6003285EFE0DFA09D473E856FD0EFA5CA
:1031A00031453305A4023E9506A123224501231192
:1031B0003501232425013285F1B7EFD26FA213F533
:1031C000F50FEFF09FE819471DC94845EFF03FDFC5
:1031D000BD472A84194763E4A702EFE0BF9BB147CC
:1031E0003304F402B7070020938707087D57A2979E
:1031F000839607006398E600EFE09F9A01473A85BF
:103200006FD04FA041677D1798C323A2070023A466
:103210000700DDB7EFD22F9B011113F5F50F328AAE
:10322000EFF0BFE2994721C185442A8463159A10C3
:103230004845EFF0DFD83D47AA8499476365A70268
:10324000EFE05F95B14AB3875403370900201309B3
:103250000908AA893E9903170900FD576319F70069
:10326000EFE01F9499473E8505616FD00F995C4050
:10327000829785450545EF00104F5C440D473AC4E1
:103280007C823EC88357290002CA52CE638C47090C
:10329000C1C70947638DE70808444C00EF00D024FC
:1032A0001844B7170140938607C005456302D7024B
:1032B0000945630FF700938707400D45630AF70040
:1032C000B72701409387078001456313F700114535
:1032D00093F5F40FEF00102F0808EF00D017956753
:1032E000938707008E04BE94D04037E700E0930632
:1032F0000005B307C7002380D74093575600938734
:10330000070485468A07B396C600BA9794C34E85CC
:10331000EFE01F89814781BF930780023EC6A14726
:103320003ECC9DBF930780043EC656CCB5B79147AF
:103330003EC6C147F5B79947E3170AF24845EFF093
:103340001FC83D479947E360A7F2931735001565FD
:10335000130505003E95584193575700938707067C
:10336000B394E4008A0737E700E0BA9784C35DB7F7
:10337000EFD20F87EFF0BFC4B1473305F502B707AF
:103380000020938707083E955C4199C308458297C2
:103390006FD04F8773110134EFD04FD70545EF0041
:1033A000301219C50545EFF0BFFC0545EF0030139D
:1033B000EFD08FD8731101347300203073110134B2
:1033C000EFD0CFD40945EF00B00F19C50945EFF094
:1033D0003FFA0945EF00B010EFD00FD6731101345A
:1033E0007300203073110134EFD04FD21145EF003C
:1033F000300D19C51145EFF0BFF71145EF00300E44
:10340000EFD08FD373110134730020307311013466
:10341000EFD0CFCF2145EF00B00A19C52145EFF01D
:103420003FF52145EF00B00BEFD00FD17311013400
:103430007300203073110134EFD04FCD4145EF00C0
:10344000300819C54145EFF0BFF24145EF003009A2
:10345000EFD08FCE7311013473002030731101341B
:10346000EFD0CFCA13050002EF0090051DCD130564
:103470000002EFF0FFEF13050004EFF07FEF1305FC
:103480000008EFF0FFEE13050010EFF07FEE1305DC
:103490000020EFF0FFED1305003EEF005004EFD0E9
:1034A000AFC9731101347300203013050004EF001D
:1034B000300155FD13050008EF0090004DF913058C
:1034C0000010EF00E07F45F513050020EF00407F7E
:1034D00059FDF1B773110134EFD04FC3130500400C
:1034E000EF00007E29C113050040EFF07FE805657D
:1034F00013050580EFF0DFE70565EFF07FE709656D
:10350000EFF01FE71165EFF0BFE62165EFF05FE632
:103510004165130505C0EF00807CEFD0EFC173114A
:10352000013473002030056513050580EF004079F4
:103530005DF90565EF00C0785DF50965EF0040783D
:103540005DF11165EF00C07759FD2165EF0040770F
:1035500059F9E1B701458280EFC29FE89C412041C3
:10356000A14641111CC0B1473EA4DC412316040012
:1035700013F7F7006301D702A546631ED70005675E
:103580005AA013D747000D8B01C785466308D700A3
:103590002313040031A023120400E5B709677AA0C1
:1035A00099838D8B05476389E70081C70947638845
:1035B000E7062314040021A0930700601EA4184806
:1035C000B7470140938707806317F7041165854566
:1035D0001105EF00501993070020B71401407C82B9
:1035E0000D49E1474C00138504803EC64AC4EF00F4
:1035F000A06F930700407C824C00914713850480A4
:103600003EC64AC4D5250848A285EF00B017084831
:103610008545EF00F022014541016FC0BFDE9307F1
:10362000004069BFEFC23FDAB7140020138444762C
:10363000930750035CC837190020B74701401306B1
:10364000C9709387078074461CC895679387476D38
:103650007CC2B70700C0F58FC166A106716713076A
:103660000720D58F1165411138C67CC68545B7073F
:103670000C00110518C01CC42322040023160400EA
:10368000EF00700EB7190140930700207C820D4AAD
:10369000E1474C001385098052C43EC6B12593070B
:1036A00000407C824C009147138509803EC652C47D
:1036B000252D084893854476EF00D00C08488545B1
:1036C000EF001018B75500009386447613063010AB
:1036D000938505FE1305C970EFF02FE20145410106
:1036E0006FC0BFD1EFC2DFCF204193050002084871
:1036F000EF00D01919C51C48CA231375F50F6FC008
:103700007FD07D55EDBFEFC2BFCD24412E848848C8
:1037100093050004EF0090177DD99C484204418036
:10372000C2A305456FC01FCEEFC29FCBC147384132
:10373000638BF502C5476395F502544B054693D755
:103740005600938707063316D6008A07B7E600E0CF
:10375000B69790C30146084B93055052EF00B00F47
:1037600001456FC03FCA544B054693D75600938717
:1037700007043316D6008A07B7E600E0B69790C371
:103780000546D1BF411122C626C473110134B714B6
:103790000020EFD0AF979387C470A0439305505299
:1037A0000848EF00500F19C985451385C470EFF024
:1037B0006FDA084893055052EF00B011EFD0CF9761
:1037C000731101343244A24441017300203073115B
:1037D0000134EFD0AF93375500001305456FEFD09C
:1037E0006FFEEFD06F9573110134730020307311A9
:1037F0000134EFD0AF91375500001305856EEFD03F
:103800006FFCEFD06F937311013473002030EFC25F
:103810003FBD8564372401409384048013040480F1
:10382000A685228579231305803EEFE0EF8B228564
:10383000A68551231305007DEFE00F8BD5B7EFC2AE
:103840003FBA8567B724014093840480138987BBFE
:103850001384873885652685A92B4A85EFE0CF88B4
:1038600026858565892B2285EFE00F88E5B7EFC2B5
:103870003FB7411185451305000402C202C402C6C8
:10388000DD258967938707807C82372501408D4736
:103890003EC44C00C147130505803EC6B12141011D
:1038A0006FC05FB6EFC2DFB3375500001305457038
:1038B000EFD04FF16922B707002083A507163755CF
:1038C000000013058571EFD0EFEF4926AA85375523
:1038D000000013058572EFD0EFEE37550000130599
:1038E0008573EFD02FEEEFF09FF8B7450000375506
:1038F0000000A94741479306001001469385E580E3
:1039000013058574EFD03FECAA84B7450000375506
:103910000000A94741479306001001469385E583BF
:1039200013050575EFD03FEA2A8481C42685EFE0B0
:103930000F8101C42285EFE08F801305803EEFD018
:10394000BFFAE5BFB71702409843B706FFF8411129
:103950001367170098C3D84337060200758FD8C382
:103960009843B706F7FEFD16758F98C39843B706C0
:10397000FCFFFD16758F98C3D843B70681FFFD166F
:10398000758FD8C39843B70600ECFD16758F98C3A2
:103990003707FF0098C723A6070202C402C6984350
:1039A000C166558F98C3B716024005679C42F18FD8
:1039B0003EC6A24785073EC4B24781E7A247E397C8
:1039C000E7FEB71702409C431397E70063570706CB
:1039D00085473EC632478547631FF704B717024045
:1039E000D843B706C1FFFD16D8C3D843D8C3D843C0
:1039F00013670740D8C3D843758FD8C3D843B706D9
:103A00002900558FD8C39843B7060001558F98C336
:103A1000984393166700E3DD06FED843B7160240CD
:103A2000719BD8C3D84313672700D8C32147DC4212
:103A3000B18BE39EE7FE4101828002C661BF37166B
:103A400002405C42370700209146B18B13070716EE
:103A50006385D700A1466388D702B7177A0093879A
:103A600007201CC3B7170240DC43918393F6F7008D
:103A7000B707002093870714B69794231C43B3D746
:103A8000D7001CC3828054425042C167C982BD8A9C
:103A90007D8E9387260085CABD466389D702C146BD
:103AA0006389D702C54581466393B700C1470DE6D8
:103AB0003746024003260680418A15C637167A002B
:103AC000130606202DA08146C947D5B78546B547C0
:103AD000F9BF8146BD47E1BF3716024050429315FA
:103AE000E600E3DD05FC37163D0013060690B387BC
:103AF000C7021CC3A5DA1C438583A5B701A001A09A
:103B000001A001A001A001A001A001A001A001A0AD
:103B100001A001A001A001A001A001A001A001A09D
:103B200001A001A001A001A001A001A001A001A08D
:103B300001A001A001A001A001A001A001A001A07D
:103B400001A001A001A001A001A001A001A001A06D
:103B500001A001A001A001A001A001A001A001A05D
:103B600001A001A001A001A001A001A001A001A04D
:103B700001A001A001A001A001A001A001A001A03D
:103B800001A001A001A001A001A001A001A001A02D
:103B900001A001A001A001A001A001A001A001A01D
:103BA00001A001A001A001A001A001A001A001A00D
:103BB00001A001A001A001A001A07390123497D12F
:103BC000FF1F938121DA17C100201301A14317259C
:103BD0000000130565CF97C5FF1F9385A542138687
:103BE000818063FAC5008322050023A055001105DA
:103BF0009105E3EAC5FE1385818097E5FF1F938554
:103C000025B86377B500232005001105E36DB5FEE7
:103C1000FD42739002BCFD4273904280B782000067
:103C20009382028073A0023097C2FFFF9382024109
:103C300093E2320073905230EFF0DFD097D2FFFF63
:103C4000938222957390123473002030B7F7FF1FD0
:103C500003A5477082805841032805004C4537066C
:103C60000140930706403E979346F8FFB1C5832570
:103C70000640F58D2320B640D043F18ED4C31443C3
:103C8000B3E6060114C3184190479346F7FF758EBB
:103C900090C7D047F18ED4C7144541466399C600FA
:103CA0009447D98E94C7D447558FD8C78280B6978A
:103CB0009443558F98C382801C43F58F1CC3828028
:103CC000B70701401387074083A70740584B698F08
:103CD00009C77D8D3335A000828001458280B707FA
:103CE000014023AAA74082809C4513F7070113F8DF
:103CF000F70001C7D8413368E8008E2113F7F50FAC
:103D000039C318418146854E3D4F930F800293027F
:103D10008004214E3396DE00B3F8C500631116030C
:103D20009398260033131F011343F3FF3377E30007
:103D3000B318180133E7E800639FF70550C98506FB
:103D4000E39AC6FD18C11307F00F6375B704544119
:103D50002146854E3D4F930F800293028004414ED1
:103D6000B398CE0033F715016392E80213172600CB
:103D700001173313EF001343F3FFB376D300331768
:103D8000E800D98E639DF701232A15010506E31982
:103D9000C6FD54C18280E39457FA10C94DB7E3972A
:103DA00057FE23281501DDB708456D8D3335A0007A
:103DB00082800CC982804CC9828019C20CC9828061
:103DC0004CC9828013F7C50F93F73500B705014042
:103DD000BA9594458A073D473317F7001347F7FF15
:103DE000758F98C598453315F500598D88C5828023
:103DF000371702405C439146B18B6385D700A146DB
:103E00006382D706B7177A00938707201CC137163D
:103E100002405C4237070020130707159183BD8BD2
:103E2000BA9794231C41B3D7D7005CC15442A182F6
:103E30009D8ABA969422B3D6D70014C55442AD8257
:103E40009D8A36971823B3D7E7005CC5584239835B
:103E5000937637001387418036971823B3D7E7024C
:103E60001CC982805C435843C166C983758FB7F60D
:103E7000FF1F83A6C670BD8B890713961601634882
:103E80000600C54601466392D702C94739A889464C
:103E9000638FD702BD46638ED702C146638ED702B9
:103EA000C54601466393D700C1471DEF374702401F
:103EB00003270780418B05C737177A0013070720B0
:103EC000B307F7021CC121D61C41858381B7014687
:103ED0006DBF0546B547D1BF0146BD47F9B7371796
:103EE0003D0013070790E9BFB7150240D855931658
:103EF000F700D85563DF060411833D8B9306170046
:103F000037177A00130707203357D70218C1D45543
:103F1000A182BD8A8DE295463307D702058318C179
:103F200037170240585714413D8B050733D7E60237
:103F300018C1184171B785456394B600E546E9BFDD
:103F4000BD456396B600D1463387E602C9BF8906F0
:103F5000E5BF3D8B9306170037177A00130707203C
:103F60003357D702F1B799C5371702401C4F5D8D03
:103F700008CF8280B7170240984F1345F5FF798D1F
:103F800088CF8280EFC2CFC51629F577FD17F58F50
:103F9000F621DA257971D58F1EA95625FD779387ED
:103FA000379FF58FD6212A842EC6D58F9625D58F9B
:103FB000B625D58F5EA55E29C207C18393F7F7CFDB
:103FC000D98F5EA96808EFF0BFE2B7470140938739
:103FD0000780B245631AF404A25756246547B38795
:103FE000E702C206C186984163D20604060752243E
:103FF0004206B3D7E702130740064186B3D6E7026D
:10400000B3F7E7029206635506028E0793872703EC
:10401000B3D7E70213F77700B367D700C207C183AE
:104020001EA445616FC00FBE925745BF0A07C1B7B6
:10403000920793872703B3D7E702BD8BD58FF9BFCC
:1040400091C55E250967D98F5EA582805A25F977CB
:10405000FD17F98FD5BF13F7F50F85471583B39576
:10406000B7006319F7009307C500984301CED98DB7
:104070008CC38280894693074501E318D7FE9307D6
:104080000501E5B793C5F5FFF98DDDB70A216D8D03
:104090003335A000828013F7F50F85461583B3975B
:1040A000B6006311D7025A25F98F1A21014542073C
:1040B000418381CB0545A181B315B5006D8F3335A3
:1040C000E000828089466314D7001A29F1BF5A297B
:1040D000E1BFA1818547B397B70093C7F7FFC20738
:1040E000C1831EA1828001476314E60001458280DE
:1040F000B307E5000507B386E5009C2383C6F6FFFA
:10410000E384D7FE3385D7408280B3C7A5008D8B6B
:104110003307C50081E78D4763EDC700AA87637E3B
:10412000E508942185078505A38FD7FEE3EBE7FE1D
:10413000828093763500AA8789CA942185078505F0
:10414000A38FD7FE93F63700C5BF9376C7FF1386BC
:1041500006FE63F0C70683A3050083A2450083AF74
:10416000850003AFC50083AE050103AE450103A37F
:10417000850183A8C5019385450223A0770003A884
:10418000C5FF23A2570023A4F70123A6E70123A814
:10419000D70123AAC70123AC670023AE1701938779
:1041A000470223AE07FF75B790419107910523AEF3
:1041B000C7FEE3EBD7FEE3E6E7F68280AA87982303
:1041C0009386170009EB850503C7F5FF8507A38FC5
:1041D000E7FE75FB8280B687DDB7AA879821850741
:1041E0008505A38FE7FE7DFB8280AA87850703C72D
:1041F000F7FF6DFF3385A7407D15828015C27D16C0
:104200000147B307E500B386E5009C23942263963B
:10421000D7006304C7000507EDF73385D7408280D8
:1042200001458280EC4C0000004D0000104D000064
:10423000244D0000304D00003C4D0000404D00007A
:10424000504D0000604D0000684D00007C4D0000A6
:104250008C4D0000944D0000A04D0000AC4D0000BE
:10426000C04D0000C84D0000D84D0000E84D0000D2
:10427000004E00006D61696E00000000546F2069FF
:104280006E697469616C697A6520646576696365D5
:104290003A2573206661696C65642E205468652038
:1042A0006572726F7220636F646520697320256484
:1042B0000A0000007469646C6500000000000100E1
:1042C00002000100030001000200010004000100DF
:1042D00002000100030001000200010005000100CE
:1042E00002000100030001000200010004000100BF
:1042F00002000100030001000200010006000100AD
:10430000020001000300010002000100040001009E
:10431000020001000300010002000100050001008D
:10432000020001000300010002000100040001007E
:10433000020001000300010002000100070001006B
:10434000020001000300010002000100040001005E
:10435000020001000300010002000100050001004D
:10436000020001000300010002000100040001003E
:10437000020001000300010002000100060001002C
:10438000020001000300010002000100040001001E
:10439000020001000300010002000100050001000D
:1043A00002000100030001000200010004000100FE
:1043B000020001000300010002000100303132332D
:1043C0003435363738394142434445460000000011
:1043D0000A205C207C202F0A000000002D2052546F
:1043E000202D2020202020546872656164204F70A9
:1043F00065726174696E672053797374656D0A0024
:104400004D6179203239203230323300202F207C28
:10441000205C202020202025642E25642E25642069
:104420006275696C642025730A0000002032303008
:1044300036202D203230313920436F707972696710
:1044400068742062792072742D74687265616420CA
:104450007465616D0A000000284E554C4C2900001F
:1044600030313233343536373839616263646566EA
:1044700000000000746F74616C206D656D6F72795F
:104480003A2025640A00000075736564206D656D2F
:104490006F7279203A2025640A0000006D61786906
:1044A0006D756D20616C6C6F6361746564206D6502
:1044B0006D6F72793A2025640A0000006C6973748C
:1044C000206D656D6F727920757361676520696E07
:1044D000666F726D6174696F6E0000006C69737451
:1044E0005F6D656D00000000746F20667265652069
:1044F0006120626164206461746120626C6F636B2F
:104500003A0A00006D656D3A203078253038782CF5
:10451000207573656420666C61673A2025642C20E1
:104520006D6167696320636F64653A203078253078
:1045300034780A0068656170000000006D656D20C8
:10454000696E69742C206572726F7220626567698A
:104550006E206164647265737320307825782C2036
:10456000616E6420656E642061646472657373209B
:10457000307825780A0000001B5B324A1B5B48003C
:104580002D2D46756E6374696F6E204C6973743A95
:104590000A0000005F5F0000252D313673202D2DAD
:1045A0002025730A000000006465766963650000D9
:1045B000252D2A2E732020202020202020207479D1
:1045C0007065202020202020202020726566206336
:1045D0006F756E740A000000202D2D2D2D2D2D2DB0
:1045E0002D2D2D2D2D2D2D2D2D2D2D2D2D202D2D08
:1045F0002D2D2D2D2D2D2D2D0A000000252D2A2E9F
:104600002A7320252D32307320252D38640A0000AE
:104610006576656E74000000252D2A2E73202020FB
:104620002020207365742020202073757370656EC0
:1046300064207468726561640A00000020202D2DDA
:104640002D2D2D2D2D2D2D2D202D2D2D2D2D2D2DA7
:104650002D2D2D2D2D2D2D0A00000000252D2A2E6B
:104660002A73202030782530387820253033643A7A
:1046700000000000252D2A2E2A73202030782530B6
:10468000387820300A0000006D61696C626F780034
:10469000252D2A2E7320656E7472792073697A65D0
:1046A0002073757370656E64207468726561640A46
:1046B00000000000202D2D2D2D20202D2D2D2D2012
:1046C0002D2D2D2D2D2D2D2D2D2D2D2D2D2D0A006A
:1046D000252D2A2E2A7320253034642020253034BD
:1046E000642025643A000000252D2A2E2A732025F7
:1046F0003034642020253034642025640A00000012
:104700006D7367717565756500000000252D2A2E93
:104710007320656E7472792073757370656E642092
:104720007468726561640A00202D2D2D2D20202DC6
:104730002D2D2D2D2D2D2D2D2D2D2D2D2D0A000026
:10474000252D2A2E2A732025303464202025643A12
:1047500000000000252D2A2E2A73202530346420E5
:104760002025640A000000006D7574657800000063
:10477000252D2A2E732020206F776E6572202068E9
:104780006F6C642073757370656E642074687265F5
:1047900061640A00202D2D2D2D2D2D2D2D202D2D48
:1047A0002D2D202D2D2D2D2D2D2D2D2D2D2D2D2D46
:1047B0002D0A0000252D2A2E2A7320252D382E2A79
:1047C0007320253034642025640A000073656D6110
:1047D00070686F7265000000252D2A2E73207620E8
:1047E000202073757370656E6420746872656164EF
:1047F0000A000000202D2D2D202D2D2D2D2D2D2DAD
:104800002D2D2D2D2D2D2D0A00000000252D2A2EB9
:104810002A7320253033642025643A00252D2A2E62
:104820002A7320253033642025640A007468726579
:1048300061640000252D2A2E732070726920207378
:104840007461747573202020202020737020202034
:104850002020737461636B2073697A65206D6178C1
:104860002075736564206C656674207469636B20C1
:10487000206572726F720A00202D2D2D20202D2DA3
:104880002D2D2D2D2D202D2D2D2D2D2D2D2D2D2D65
:10489000202D2D2D2D2D2D2D2D2D2D20202D2D2D6F
:1048A0002D2D2D20202D2D2D2D2D2D2D2D2D2D205F
:1048B0002D2D2D0A00000000252D2A2E2A732025DB
:1048C00033642000207265616479202000000000BC
:1048D0002073757370656E640000000020696E6956
:1048E000742020200000000020636C6F736520207E
:1048F00000000000203078253038782030782530CE
:1049000038782020202025303264252520202030B2
:10491000782530387820253033640A0074696D6555
:1049200072000000252D2A2E732020706572696F99
:1049300064696320202074696D656F757420202080
:1049400020202020666C61670A000000202D2D2D9C
:104950002D2D2D2D2D2D2D202D2D2D2D2D2D2D2D94
:104960002D2D202D2D2D2D2D2D2D2D2D2D2D0A00D4
:10497000252D2A2E2A73203078253038782030785B
:1049800025303878200000006163746976617465B1
:10499000640A000064656163746976617465640A21
:1049A0000000000063757272656E74207469636B39
:1049B0003A3078253038780A000000006C6973744A
:1049C00020616C6C2073796D626F6C20696E20734E
:1049D000797374656D0000006C69737400000000E9
:1049E0006C6973742064657669636520696E2073F1
:1049F000797374656D0000005F5F636D645F6C695F
:104A000073745F6465766963650000006C69737434
:104A10002064657669636520696E207379737465B7
:104A20006D0000006C6973745F646576696365008E
:104A30006C6973742074696D657220696E20737976
:104A40007374656D000000005F5F636D645F6C6987
:104A500073745F74696D6572000000006C69737433
:104A60002074696D657220696E2073797374656D49
:104A7000000000006C6973745F74696D65720000FA
:104A80006C697374206D65737361676520717565FA
:104A9000756520696E2073797374656D0000000080
:104AA0005F5F636D645F6C6973745F6D736771756D
:104AB000657565006C697374206D657373616765F6
:104AC00020717565756520696E2073797374656DE5
:104AD000000000006C6973745F6D736771756575B4
:104AE000650000006C697374206D61696C20626FF1
:104AF0007820696E2073797374656D005F5F636DF4
:104B0000645F6C6973745F6D61696C626F780000DB
:104B10006C697374206D61696C20626F7820696EB6
:104B20002073797374656D006C6973745F6D61696E
:104B30006C626F78000000006C697374206D75748E
:104B4000657820696E2073797374656D00000000CC
:104B50005F5F636D645F6C6973745F6D75746578B6
:104B6000000000006C697374206D757465782069AD
:104B70006E2073797374656D000000006C69737446
:104B80005F6D7574657800006C6973742065766577
:104B90006E7420696E2073797374656D0000000077
:104BA0005F5F636D645F6C6973745F6576656E7477
:104BB000000000006C697374206576656E7420696E
:104BC0006E2073797374656D000000006C697374F6
:104BD0005F6576656E7400006C6973742073656D33
:104BE0006170686F726520696E2073797374656D8A
:104BF000000000005F5F636D645F6C6973745F73D6
:104C0000656D00006C6973742073656D6170686F09
:104C10006E6520696E2073797374656D0000000005
:104C20006C6973745F73656D000000006C69737468
:104C300020746872656164005F5F636D645F6C69B6
:104C400073745F7468726561640000006C697374EA
:104C500020746872656164006C6973745F74687253
:104C600065616400746865207465726D696E616C5D
:104C70002073637265656E005F5F636D645F636C74
:104C800065617200746865207465726D696E616C2F
:104C90002073637265656E00636C6561720000006D
:104CA0007265626F6F742074686520626F617264F0
:104CB000000000005F5F636D645F7265626F6F7418
:104CC000000000007265626F6F7420746865206276
:104CD0006F617264000000007265626F6F740000A3
:104CE0002D000000257300002F0000004368617252
:104CF0006163746572204465766963650000000035
:104D0000426C6F636B204465766963650000000048
:104D10004E6574776F726B20496E7465726661635D
:104D2000650000004D5444204465766963650000C9
:104D300043414E2044657669636500005254430048
:104D4000536F756E642044657669636500000000EA
:104D50004772617068696320446576696365000025
:104D6000493243204275730055534220536C61769B
:104D70006520446576696365000000005553422054
:104D8000486F73742042757300000000535049202F
:104D9000427573005350492044657669636500008D
:104DA0005344494F2042757300000000504D20507D
:104DB000736575646F204465766963650000000063
:104DC0005069706500000000506F7274616C20447F
:104DD000657669636500000054696D6572204465FD
:104DE00076696365000000004D697363656C6C61F2
:104DF0006E656F7573204465766963650000000019
:104E0000556E6B6E6F776E00546F6F206D616E79AB
:104E100020617267732021205765206F6E6C7920A6
:104E20005573653A0A0000002573200025733A2067
:104E3000636F6D6D616E64206E6F7420666F756E4A
:104E4000642E0A0052542D546872656164207368A0
:104E5000656C6C20636F6D6D616E64733A0A00005F
:104E60005F5F636D645F0000252D313673202D2058
:104E700025730A0052542D5468726561642073686A
:104E8000656C6C2068656C70000000005F5F636D8E
:104E9000645F68656C70000053686F7720746865A4
:104EA000206D656D6F727920757361676520696E1D
:104EB000207468652073797374656D005F5F636D3E
:104EC000645F6672656500004C6973742074687273
:104ED0006561647320696E207468652073797374EA
:104EE000656D00005F5F636D645F707300000000BC
:104EF0006D7368200000000066696E736820000012
:104F00003E00000066696E73683A2063616E206E31
:104F10006F742066696E64206465766963653A2003
:104F200025730A006E6F206D656D6F727920666F54
:104F300072207368656C6C0A000000007473686509
:104F40006C6C0000736872780000000008000000BC
:104F500025630000082573202008000008200800B1
:104F60001B5B324B0D000000257325730000000011
:104F700072656164207374617475732066726F6DFD
:104F80002068617264776172652070696E0000004C
:104F900070696E526561640077726974652076612C
:104FA0006C756520746F206861726477617265202A
:104FB00070696E0070696E57726974650000000058
:104FC0007365742068617264776172652070696EC0
:104FD000206D6F646500000070696E4D6F64650040
:104FE0007561727431000000AA3000006A30000060
:104FF0008C30000028310000BA310000143200006B
:105000000100000016000000020000001700000070
:105010000400000018000000080000001900000053
:10502000100000001A00000020000000270000000F
:105030004000000027000000800000002700000062
:10504000000100002700000000020000270000000F
:1050500000040000380000000008000038000000D4
:1050600000100000380000000020000038000000A0
:105070000040000038000000008000003800000000
:10508000FFFFFFFF00000000000000000000000024
:10509000010000001C300000001801400400000066
:1050A000020000001C300000001801400800000051
:1050B000030000001C300000001801401000000038
:1050C000040000001C300000001801402000000017
:1050D000050000001C3000000018014040000000E6
:1050E000FFFFFFFF000000000000000000000000C4
:1050F000070000000C3000000010014000200000FC
:10510000080000000C3000000010014000400000CA
:10511000090000000C300000001001400080000079
:10512000FFFFFFFF00000000000000000000000083
:10513000FFFFFFFF00000000000000000000000073
:10514000FFFFFFFF00000000000000000000000063
:10515000FFFFFFFF00000000000000000000000053
:10516000FFFFFFFF00000000000000000000000043
:105170000F0000000C300000001001400100000092
:10518000100000000C300000001001400200000080
:10519000110000000C30000000100140040000006D
:1051A000120000000C300000001001400800000058
:1051B000FFFFFFFF000000000000000000000000F3
:1051C000FFFFFFFF000000000000000000000000E3
:1051D000FFFFFFFF000000000000000000000000D3
:1051E000FFFFFFFF000000000000000000000000C3
:1051F00017000000FC2F0000000801400100000023
:1052000018000000FC2F0000000801400200000010
:1052100019000000FC2F00000008014004000000FD
:105220001A000000FC2F00000008014008000000E8
:10523000FFFFFFFF00000000000000000000000072
:10524000FFFFFFFF00000000000000000000000062
:105250001D000000FC2F00000008014010000000AD
:105260001E000000FC2F000000080140200000008C
:105270001F000000FC2F000000080140400000005B
:1052800020000000FC2F000000080140800000000A
:10529000210000000C300000001001401000000050
:1052A000220000000C30000000100140200000002F
:1052B00023000000EC2F0000000C01400100000062
:1052C00024000000EC2F0000000C01400200000050
:1052D00025000000EC2F0000000C0140040000003D
:1052E000260000001C300000001801408000000073
:1052F000270000001C3000000018014000010000E1
:10530000280000001C3000000018014000020000CE
:10531000290000001C3000000018014000040000BB
:105320002A0000001C3000000018014000080000A6
:105330002B0000001C30000000180140001000008D
:105340002C0000001C30000000180140002000006C
:105350002D0000001C30000000180140004000003B
:105360002E0000001C3000000018014000800000EA
:105370002F000000EC2F0000000C01400004000092
:1053800030000000EC2F0000000C0140000800007D
:10539000FFFFFFFF00000000000000000000000011
:1053A000FFFFFFFF00000000000000000000000001
:1053B00033000000EC2F0000000C01400010000042
:1053C00034000000EC2F0000000C01400020000021
:1053D00035000000EC2F0000000C014000400000F0
:1053E00036000000EC2F0000000C0140008000009F
:1053F00037000000DA2F0000001401400001000017
:1054000038000000DA2F0000001401400002000004
:1054100039000000DA2F00000014014000040000F1
:105420003A000000DA2F00000014014000080000DC
:105430003B000000DA2F00000014014000100000C3
:105440003C000000DA2F00000014014000200000A2
:105450003D000000DA2F0000001401400040000071
:105460003E000000DA2F0000001401400080000020
:105470003F0000000C300000001001404000000020
:10548000400000000C3000000010014080000000CF
:10549000410000000C30000000100140000100003D
:1054A000420000000C30000000100140000200002B
:1054B00043000000FC2F0000000801400001000034
:1054C00044000000FC2F0000000801400002000022
:1054D00045000000FC2F000000080140000400000F
:1054E00046000000FC2F00000008014000080000FA
:1054F00047000000FC2F00000008014000100000E1
:1055000048000000FC2F00000008014000200000BF
:10551000FFFFFFFF0000000000000000000000008F
:10552000FFFFFFFF0000000000000000000000007F
:10553000FFFFFFFF0000000000000000000000006F
:105540004C000000FC2F000000080140004000005B
:105550004D000000FC2F000000080140008000000A
:105560004E0000000C30000000100140000400005C
:105570004F0000000C300000001001400008000047
:10558000500000000C30000000100140001000002E
:1055900051000000DA2F000000140140010000005B
:1055A00052000000DA2F0000001401400200000049
:1055B00053000000DA2F0000001401400400000036
:1055C00054000000DA2F0000001401400800000021
:1055D00055000000DA2F0000001401401000000008
:1055E00056000000DA2F00000014014020000000E7
:1055F00057000000DA2F00000014014040000000B6
:1056000058000000DA2F0000001401408000000064
:1056100059000000EC2F0000000C014008000000C1
:105620005A000000EC2F0000000C014010000000A8
:105630005B000000EC2F0000000C01402000000087
:105640005C000000EC2F0000000C01404000000056
:105650005D000000EC2F0000000C01408000000005
:10566000FFFFFFFF0000000000000000000000003E
:105670005F000000EC2F0000000C01400001000062
:1056800060000000EC2F0000000C01400002000050
:10569000610000001C300000001801400100000003
:1056A000620000001C3000000018014002000000F1
:1056B000FFFFFFFF000000000000000000000000EE
:1056C000FFFFFFFF000000000000000000000000DE
:1056D00070696E005835000028370000063700005A
:1056E000E436000054350000206861726466756C11
:1056F000740D0A00204E4D492048616E646C65723D
:105700000D0A00000D0A204D43553A20434833321C
:10571000563330370D0A000020537973436C6B3ACF
:10572000202564487A0D0A00204368697049443A8C
:1057300020253038780D0A00207777772E77636838
:105740002E636E0D0A0000006C65643100000000DD
:105750006C65643200000000DC440000BC440000C2
:1057600010110000D8490000BC490000FE210000D3
:10577000F8490000E0490000D0200000244A000061
:105780000C4A0000D0200000484A0000304A0000C7
:1057900064210000744A00005C4A0000642100009B
:1057A000A04A0000804A00001A200000D44A0000ED
:1057B000B44A00001A200000FC4A0000E44A00003D
:1057C0005C1F0000284B0000104B00005C1F000015
:1057D000504B0000384B0000DA1E00007C4B0000EC
:1057E000644B0000DA1E0000A04B0000884B000054
:1057F0002E1E0000CC4B0000B44B00002E1E0000FB
:10580000F44B0000D84B0000781D0000204C000035
:10581000044C0000781D0000384C00002C4C0000A7
:10582000961C0000584C00004C4C0000961C0000D8
:10583000784C0000644C0000EC1B0000984C000009
:10584000844C0000EC1B0000B44C0000A04C000095
:10585000DA1B0000D84C0000C44C0000DA1B00002A
:105860008C4E0000744E000048220000BC4E000028
:10587000984E0000FE240000E44E0000C84E0000D8
:10588000F0240000904F0000704F00004E2E0000EA
:10589000B44F0000984F0000342E0000D84F000095
:1058A000C04F00001A2E0000E6040000EE040000C5
:1058B0002E30000024360000F20400001E250000F7
:0458C000EA040000F6
:1058C400010000000400002004000020800000000B
:1058D400020000001400002014000020200000003A
:1058E4000300000024000020240000202400000005
:1058F40004000000340000203400002020000000D8
:105904000500000044000020440000203000000096
:105914000600000054000020540000203400000061
:10592400090000006400002064000020440000001E
:105934000A00000074000020740000202C00000005
:10594400FFFF00000000000000000000FFFF000057
:105954000000000000000000FFFF00000000000045
:1059640000000000FFFF0000000000000000000035
:10597400FFFF00000000000000000000FFFF000027
:105984000000000000000000FFFF00000000000015
:1059940000000000FFFF0000000000000000000005
:1059A400FFFF00000000000000000000FFFF0000F7
:1059B4000000000000000000FFFF000000000000E5
:1059C40000000000FFFF00000000000000000000D5
:1059D400FFFF00000000000000000000FFFF0000C7
:1059E4000000000000000000FFFF000000000000B5
:1059F40000000000FFFF00000000000000000000A5
:105A0400000000000000000001020304060708096A
:105A14000000000001020304010203040607080950
:085A240000D8B80502040608D1
:00000001FF
